:020000040800F2
:10000000E03700207D800008F98000085D85000849
:10001000F9800008F9800008F9800008000000005D
:10002000000000000000000000000000F98000084F
:10003000F980000800000000F9800008018A00082B
:10004000F9800008F9800008F9800008F9800008AC
:10005000F9800008F9800008F98000085929000893
:10006000F9800008F9800008F9800008F98000088C
:10007000F9800008F9800008F9800008F98000087C
:10008000F9800008F9800008F9800008F98000086C
:10009000F9800008F9800008F98000086529000847
:1000A000F9800008F9800008F980000899710008BB
:1000B000B17400086975000839760008410A000823
:1000C000350A0008590A00084D0A0008F98000089E
:1000D000F9800008F98000080916010821190108B3
:1000E000354C0008F9800008F9800008F980000804
:1000F000F9800008F980000825730008F9800008DD
:10010000F9800008F9800008CD770008F980000820
:10011000F9800008F9800008F9800008F9800008DB
:10012000F9800008F9800008F9800008F9800008CB
:10013000F9800008F9800008F9800008F9800008BB
:10014000F9800008F9800008F9800008F9800008AB
:10015000F9800008F980000819130108F9800008E7
:10016000F9800008F9800008F9800008F98000088B
:10017000F9800008F9800008F9800008F98000087B
:10018000F9800008F980000880B582B000AF40F225
:10019000E453C2F200031B689B8A9BB27B607B68BE
:1001A00003F4E063002B6FD040F2E453C2F200038B
:1001B0001B681B8B9BB23B6040F2E453C2F200030E
:1001C0001B6818464FF480614FF0000211F04CFF9D
:1001D0007B6803F40073002B56D140F2E453C2F263
:1001E00000031B681B889BB203F40073002B4BD1E8
:1001F00040F2E453C2F200031B681B889BB203F475
:100200008073002B2AD000BF40F2E453C2F20003F7
:100210001B681B889BB203F48073002BF4D140F25F
:10022000E453C2F200031B6818464FF0010111F0BD
:100230009FFE00BF40F2E453C2F200031B681B881C
:100240009BB203F40073002BF4D140F2E453C2F2EA
:1002500000031B68184600F001FF15E040F2E4536C
:10026000C2F200031B6818464FF0010111F080FE36
:1002700040F2E453C2F200031B6818464FF4407189
:100280004FF0000211F0F0FE40F2E453C2F200031E
:100290001A6840F2E453C2F200031B689B8A9BB2C7
:1002A00023F470639BB2938240F2EC53C2F20003DA
:1002B0004FF000021A7007F10807BD4680BD00BF6D
:1002C000B0B582B000AF40F2E453C2F200031B6845
:1002D0009B8A9BB2FB71FB7903F00103002B00F0BA
:1002E0008B8040F2E453C2F200031A6840F2E453F8
:1002F000C2F200031B681B889BB223F400639BB20D
:10030000138040F2E453C2F200031B6818464FF01A
:10031000010111F06BFE40F2FC53C2F200034FF0FA
:1003200000021A7040F2F153C2F200031B78DBB2F4
:10033000002B3FD040F2FD53C2F200031B78002B8C
:1003400007D140F2EE53C2F200031B78DBB2FF2B61
:1003500030D140F2FD53C2F200034FF001021A7097
:1003600040F2EF53C2F200031B78DBB2022B0FD135
:1003700040F2E453C2F200031A6840F2E453C2F2BE
:1003800000031B681B889BB243F400639BB213807D
:1003900040F2E453C2F200031A6840F2ED53C2F295
:1003A00000031B78DBB2104619464FF0010211F032
:1003B000FFFD0AE340F2E453C2F200031A6840F280
:1003C000ED53C2F200031B78DBB2104619464FF022
:1003D000000211F0EDFD40F2EE53C2F200031B7873
:1003E000DBB2FF2B00F0F08240F2FC53C2F20003BC
:1003F0004FF0FF021A70E7E2FB7903F00203002BD3
:1004000000F0B680BFF35F8F40F2EF53C2F20003FB
:100410001B78DBB2012B41D140F2F153C2F2000351
:100420001B78DBB2002B39D040F2FD53C2F200033F
:100430001B78002B32D040F2E453C2F200031B6859
:1004400018464FF0000111F0D1FDBFF35F8F40F26D
:10045000E453C2F200031B681B8B9BB2DBB2BB717F
:1004600040F2E453C2F200031B6818464FF001014A
:1004700011F07EFD40F2FE53C2F200034FF0010284
:100480001A7040F2E453C2F200031B6818464FF49E
:1004900080614FF0010211F0E7FD96E240F2E45373
:1004A000C2F200031B681B8B9BB2DBB2BB71BFF3B4
:1004B0005F8F40F2EF53C2F200031B78DBB2022BD6
:1004C00025D140F2F153C2F200031B78DBB2002BBE
:1004D0001DD040F2FD53C2F200031B78002B16D052
:1004E00040F2E453C2F200031B6818464FF00001CB
:1004F00011F07CFD40F2E453C2F200031B68184681
:100500004FF480614FF0000211F0AEFD5DE240F269
:10051000EF53C2F200031B78DBB2032B1BD140F276
:10052000F153C2F200031B78DBB2002B13D040F270
:10053000FD53C2F200031B78002B0CD040F2E453B1
:10054000C2F200031B6818464FF480614FF00002AE
:1005500011F08AFD39E240F2E453C2F200031B6855
:1005600018464FF480614FF0010211F07DFD2CE23E
:10057000FB7903F00403002B00F0468140F2FE53A8
:10058000C2F200034FF001021A7040F2F153C2F2BE
:1005900000031B78DBB2002B00F0DE8040F2FD533D
:1005A000C2F200031B78002B00F0D68040F2EF531C
:1005B000C2F200031B78DBB2022B65D940F2E45390
:1005C000C2F200031B6818464FF0000111F00EFD47
:1005D00040F2F853C2F200031A6840F2FC53C2F230
:1005E00000031C7863B2D51840F2E453C2F2000352
:1005F0001B68184611F02AFD03462B70234603F1B1
:100600000103DAB240F2FC53C2F200031A7040F266
:10061000E453C2F200031B6818464FF0010111F0C9
:10062000A7FC40F2FE53C2F200034FF001021A7021
:1006300040F2F853C2F200031A6840F2FC53C2F2CF
:1006400000031C7863B2D51840F2E453C2F20003F1
:100650001B68184611F0FAFC03462B70234603F181
:100660000103DAB240F2FC53C2F200031A7040F206
:10067000E453C2F200031B6818464FF480614FF048
:10068000010211F0F1FCB2E040F2FE53C2F20003AD
:100690001B78002B0AD040F2E453C2F200031B681F
:1006A00018464FF0010111F063FC09E040F2E453F9
:1006B000C2F200031B6818464FF0010111F038FC2C
:1006C00040F2F853C2F200031A6840F2FC53C2F23F
:1006D00000031C7863B2D51840F2E453C2F2000361
:1006E0001B68184611F0B2FC03462B70234603F139
:1006F0000103DAB240F2FC53C2F200031A7040F276
:10070000F853C2F200031A6840F2FC53C2F200032D
:100710001C7863B2D51840F2E453C2F200031B68A0
:10072000184611F093FC03462B70234603F1010396
:10073000DAB240F2FC53C2F200031A7040F2FC53EA
:10074000C2F200031B7803F10103DAB240F2FC535A
:10075000C2F200031A704AE040F2FD53C2F20003F5
:100760001B78002B07D140F2F053C2F200031B7834
:10077000DBB2002B29D040F2FE53C2F200031B78FB
:10078000002B0AD040F2E453C2F200031B68184663
:100790004FF0010111F0ECFB09E040F2E453C2F22A
:1007A00000031B6818464FF0010111F0C1FB40F235
:1007B000FC53C2F200031B7803F10103DAB240F2EA
:1007C000FC53C2F200031A7011E040F2E453C2F28B
:1007D00000031B6818464FF0010111F0A9FB40F21D
:1007E000FD53C2F200034FF001021A70FFE700BF91
:1007F00040F2E453C2F200031B681B889BB203F46F
:100800008073002BF4D1E0E0FB7903F04003002B70
:1008100059D040F2F853C2F200031A6840F2FC5378
:10082000C2F200031C7863B2D51840F2E453C2F25E
:1008300000031B68184611F009FC03462B70234681
:1008400003F10103DAB240F2FC53C2F200031A7062
:1008500040F2EF53C2F200031B78DBB21A4640F2BB
:10086000FC53C2F200031B785BB203F103039A420C
:100870000BD140F2E453C2F200031B6818464FF458
:1008800080614FF0000211F0EFFB40F2EF53C2F233
:1008900000031B78DBB21A4640F2FC53C2F200039D
:1008A0001B785BB29A4240F0908040F2FC53C2F257
:1008B00000031B7803F10103DAB240F2FC53C2F2E9
:1008C00000031A7081E0FB795BB2002B7DDA40F205
:1008D000FC53C2F200031B785BB2B3F1FF3F3AD086
:1008E00040F2E453C2F20003196840F2F453C2F23A
:1008F0000003186840F2FC53C2F200031B785AB29E
:1009000082181278D2B203F10103D8B240F2FC533C
:10091000C2F2000318700846114611F087FB40F23E
:10092000EF53C2F200031B78DBB21A4640F2FC53CD
:10093000C2F200031B785BB29A4246D140F2E45304
:10094000C2F200031B6818464FF480614FF00002AA
:1009500011F08AFB39E040F2FC53C2F200031B782D
:1009600003F10103DAB240F2FC53C2F200031A7041
:1009700040F2E453C2F200031A6840F2EE53C2F2AE
:1009800000031B78DBB21046194611F04FFB40F212
:10099000F153C2F200031B78DBB2002B07D140F207
:1009A000EF53C2F200031B78DBB2002B0DD140F2F3
:1009B000E453C2F200031B6818464FF480614FF005
:1009C000000211F051FB00E000BF40F2FC53C2F204
:1009D00000031B785AB240F2EF53C2F200031B78B7
:1009E000DBB203F101039A4220D140F2FD53C2F27F
:1009F00000034FF000021A7040F2FE53C2F20003EF
:100A00001B78002B0BD040F2E453C2F200031B68AA
:100A100018464FF440714FF0000211F025FB40F2F0
:100A2000EC53C2F200034FF000021A7007F10807FE
:100A3000BD46B0BD80B500AFFFF7A6FB80BD00BFCF
:100A400080B500AFFFF73CFC80BD00BF80B500AFB4
:100A5000FFF79AFB80BD00BF80B500AFFFF730FC09
:100A600080BD00BF80B588B000AF3B600346FB711E
:100A70000B46BB7113467B7147F23053BB61FB7968
:100A80004FEA4303DAB240F2ED53C2F200031A70A8
:100A900040F2EE53C2F20003BA791A7040F2F053FA
:100AA000C2F200034FF001021A7040F2F153C2F299
:100AB00000034FF000021A7040F2F453C2F2000338
:100AC00007F108021A6040F2F853C2F2000307F17E
:100AD00008021A6040F2EF53C2F200037A791A70EA
:100AE00040F2EC53C2F200034FF001021A707B791E
:100AF000102B02D94FF000039FE04FF00003FB776B
:100B00000DE0FB7FFA7F39688A18127807F120011F
:100B1000CB1803F8182CFB7F03F10103FB77FA7F56
:100B20007B799A42EDD340F2E453C2F200031B6892
:100B30009B889BB203F40073002B2CD140F2E4534A
:100B4000C2F200031B681B889BB203F48073002B66
:100B500015D100BF40F2E453C2F200031B681B88AA
:100B60009BB203F40073002BF4D140F2E453C2F2C1
:100B700000031B6818464FF0010111F0D9F940F24B
:100B8000E453C2F200031B6818464FF440714FF063
:100B9000010211F069FA00BF40F2EC53C2F2000307
:100BA0001B78DBB2002B06D0BB6903F1FF33BB61BE
:100BB000BB69002BF0D1BB69002B3CD140F2E45360
:100BC000C2F200031A684FF4A843C4F200039A4229
:100BD0000DD140F2E853C2F200031B889BB203F12F
:100BE00001039AB240F2E853C2F200031A8040F2C5
:100BF000E453C2F200031A684FF4B043C4F2000396
:100C00009A420DD140F2EA53C2F200031B889BB214
:100C100003F101039AB240F2EA53C2F200031A80D0
:100C200040F2E453C2F200031B68184600F016FAC3
:100C30004FF0000301E04FF00103184607F12007D1
:100C4000BD4680BD80B582B000AF13460246FA7142
:100C50000A46BA717B71F979BA7907F1050308463A
:100C600011464FF00102FFF7FDFE0346184607F15B
:100C70000807BD4680BD00BF80B584B000AF3B60B3
:100C80000346FB710B46BB7113467B7147F2305331
:100C9000FB60FB794FEA4303DAB240F2ED53C2F254
:100CA00000031A7040F2EE53C2F20003BA791A70D0
:100CB00040F2F053C2F200034FF000021A7040F20B
:100CC000F153C2F200034FF001021A7040F2F853E0
:100CD000C2F200033A681A6040F2F453C2F2000311
:100CE0003A681A6040F2EF53C2F200037A791A7040
:100CF00040F2EC53C2F200034FF001021A7040F2CE
:100D0000E453C2F200031B689B889BB203F4007398
:100D1000002B2CD140F2E453C2F200031B681B8865
:100D20009BB203F48073002B15D100BF40F2E45353
:100D3000C2F200031B681B889BB203F40073002BF4
:100D4000F4D140F2E453C2F200031B6818464FF09E
:100D5000010111F0EDF840F2E453C2F200031B6808
:100D600018464FF440714FF0010211F07DF900BFB9
:100D700040F2EC53C2F200031B78DBB2002B06D02A
:100D8000FB6803F1FF33FB60FB68002BF0D1FB68CD
:100D9000002B3CD140F2E453C2F200031A684FF436
:100DA000A843C4F200039A420DD140F2E853C2F2C4
:100DB00000031B889BB203F101039AB240F2E8538F
:100DC000C2F200031A8040F2E453C2F200031A6830
:100DD0004FF4B043C4F200039A420DD140F2EA53FB
:100DE000C2F200031B889BB203F101039AB240F2E6
:100DF000EA53C2F200031A8040F2E453C2F2000345
:100E00001B68184600F02AF94FF0000301E04FF08C
:100E10000103184607F11007BD4680BD80B586B0B6
:100E200000AF786007F10C0318460BF04DFC7A68B0
:100E30004FF4A843C4F200039A4240F081804FF07F
:100E4000C003FB604FF001033B744FF002037B745F
:100E50004FF00103BB7407F10C034FF48060C4F240
:100E6000020019460BF08EFB4FF48060C4F20200C2
:100E70004FF0C0010BF064FC4FF00003FB752CE059
:100E80004FF0030007F094FE00E000BF4FF48060D5
:100E9000C4F202004FF040010BF034FC0346002B7B
:100EA000EED04FF48060C4F202004FF040010BF02E
:100EB00055FC4FF0030007F07BFE4FF48060C4F256
:100EC00002004FF040010BF03BFC4FF0030007F035
:100ED0006FFEFB7D03F10103FB75FB7D072BD4D96E
:100EE0004FF48060C4F202004FF080010BF036FC3A
:100EF0004FF0030007F05CFE4FF48060C4F2020084
:100F00004FF040010BF02AFC4FF0030007F050FEB9
:100F10004FF48060C4F202004FF040010BF010FC6F
:100F20004FF0030007F044FE4FF48060C4F202006B
:100F30004FF080010BF004FC4FF0030007F038FE87
:100F40007A684FF4B043C4F200039A4240F08180C3
:100F50004FF44063FB604FF001033B744FF002031A
:100F60007B744FF00103BB7407F10C034FF48060F6
:100F7000C4F2020019460BF005FB4FF48060C4F286
:100F800002004FF440610BF0DBFB4FF00003FB75F8
:100F90002CE04FF0030007F00BFE00E000BF4FF421
:100FA0008060C4F202004FF480610BF0ABFB03469B
:100FB000002BEED04FF48060C4F202004FF4806149
:100FC0000BF0CCFB4FF0030007F0F2FD4FF4806014
:100FD000C4F202004FF480610BF0B2FB4FF003004B
:100FE00007F0E6FDFB7D03F10103FB75FB7D072B9D
:100FF000D4D94FF48060C4F202004FF400610BF0CA
:10100000ADFB4FF0030007F0D3FD4FF48060C4F256
:1010100002004FF480610BF0A1FB4FF0030007F0DA
:10102000C7FD4FF48060C4F202004FF480610BF002
:1010300087FB4FF0030007F0BBFD4FF48060C4F264
:1010400002004FF400610BF07BFB4FF0030007F050
:10105000AFFD07F11807BD4680BD00BF80B58AB05F
:1010600000AF786040F2E453C2F200037A681A607D
:101070007A684FF4A843C4F200039A4240F0898092
:101080004FF002004FF0010107F05CFB4FF400103D
:101090004FF0010107F080FB7868FFF7BFFE07F112
:1010A000200318460BF010FB07F11003184610F050
:1010B000FDFE4FF0C0033B624FF0020387F824307F
:1010C0004FF0020387F825304FF0010387F82630F0
:1010D00007F120034FF48060C4F2020019460BF0C0
:1010E00051FA4FF48060C4F202004FF006014FF055
:1010F00004020BF041FB4FF48060C4F202004FF099
:1011000007014FF004020BF037FB4FF4A840C4F284
:1011100000004FF440714FF0000210F0A5FF4FF4B3
:10112000A840C4F2000010F0A7FD07F11003184614
:1011300010F0BCFE4FF4D453C0F206033B6107F13C
:1011400010034FF4A840C4F20000194610F0D8FD77
:101150004FF4A840C4F200004FF0010110F0C8FEA7
:101160004FF020033B734FF000037B734FF00003FD
:10117000BB734FF00103FB7307F10C03184612F029
:10118000FBFB4FF01F033B7307F10C03184612F0F3
:10119000F3FB7A684FF4B043C4F200039A4240F084
:1011A00089804FF002004FF0010107F0CBFA4FF4B5
:1011B00080004FF0010107F0EFFA7868FFF72EFE8C
:1011C00007F1200318460BF07FFA07F110031846C9
:1011D00010F06CFE4FF440633B624FF0020387F85F
:1011E00024304FF0020387F825304FF0010387F8D1
:1011F000263007F120034FF48060C4F20200194644
:101200000BF0C0F94FF48060C4F202004FF00A0105
:101210004FF004020BF0B0FA4FF48060C4F2020009
:101220004FF00B014FF004020BF0A6FA4FF4B04060
:10123000C4F200004FF440714FF0000210F014FFB0
:101240004FF4B040C4F2000010F016FD07F1100397
:10125000184610F02BFE4FF4D453C0F206033B6146
:1012600007F110034FF4B040C4F20000194610F02B
:1012700047FD4FF4B040C4F200004FF0010110F000
:1012800037FE4FF022033B734FF000037B734FF0A8
:101290000003BB734FF00103FB7307F10C03184607
:1012A00012F06AFB4FF021033B7307F10C03184661
:1012B00012F062FB07F12807BD4680BD80B400AF85
:1012C00040F2E453C2F200031A684FF4A843C4F298
:1012D00000039A4206D140F2E853C2F200031B8891
:1012E0009BB205E040F2EA53C2F200031B889BB2B6
:1012F0001846BD4680BC704780B500AF40F2A003E1
:10130000C2F200031B8807EE903AB8EEE77ADFEDF1
:10131000177A67EE277AFDEEE77A17EE903A9AB2DF
:1013200040F20863C2F200031A8040F2A003C2F246
:1013300000031B8807EE103AF8EEC77A9FED0C7A8F
:1013400087EE277ADFED0B7AC7EE277A41F2140396
:10135000C2F20003C3ED007A4FF0080003F0BEFBB9
:101360000346002B01D011F081FE80BDC903683F08
:101370000AE81C4100401C4680B582B000AF11F065
:1013800065FE4FF0020003F0A9FB0346002B04D0DA
:1013900011F090FB00F0B4FC14E041F21803C2F22B
:1013A00000034FF000021A8041F21803C2F200035A
:1013B0004FF000025A8041F21803C2F200034FF0CE
:1013C00000029A804FF0400003F0D8FB0346002B48
:1013D00077D040F28863C2F200031B78002B27D13C
:1013E00041F20813C2F20003D3F8F4304FEA13437A
:1013F000DAB240F28863C2F200031A7041F20813B5
:10140000C2F20003D3F8F4304FEA1323DAB240F209
:101410008863C2F200035A7041F20813C2F200035B
:10142000D3F8F430DAB240F28863C2F200039A7063
:101430004FF000037B6040E040F28C63C2F2000397
:101440007A6833F812301AB240F28863C2F20003AD
:1014500079685B181B7803F1FF3303FB02F241F25A
:101460000003C2F20003796833F811301BB2D318BD
:1014700003F1010240F28863C2F2000379685B184D
:101480001B7892FBF3F399B240F23063C2F200038F
:101490007A6823F8121040F23063C2F200037A68CF
:1014A00033F8121040F28C63C2F200037A6823F81A
:1014B00012107B6803F101037B607B68022BBBD9B0
:1014C0005CE041F20813C2F200035B79012B3CD1CE
:1014D00040F29263C2F200031B881BB24FEA430240
:1014E00041F20003C2F200039B881BB2D21845F2FE
:1014F0005653C5F2555383FB02014FEAE273CB1AF0
:101500009AB240F23063C2F200039A8040F2306334
:10151000C2F200039A8840F29263C2F200031A807A
:1015200041F20003C2F200031A8840F23063C2F2B3
:1015300000031A8041F20003C2F200035A8840F20D
:101540003063C2F200035A8018E04FF000037B6062
:1015500011E041F20003C2F200037A6833F812107E
:1015600040F23063C2F200037A6823F812107B68FD
:1015700003F101037B607B68022BEAD907F10807BE
:10158000BD4680BD80B59AB000AF786039607A689A
:1015900007F1300307CA83E807003B68D3ED007A00
:1015A000B0EE670A17F0AAFD87ED190A3B68D3ED84
:1015B000007AB0EE670A17F023FE87ED180A3B6841
:1015C00003F10403D3ED007AB0EE670A17F096FD3D
:1015D00087ED170A3B6803F10403D3ED007AB0EE00
:1015E000670A17F00DFE87ED160A3B6803F1080342
:1015F000D3ED007AB0EE670A17F080FD87ED150A8B
:101600003B6803F10803D3ED007AB0EE670A17F0E8
:10161000F7FD87ED140A97ED157AD7ED197A67EE85
:10162000277AC7ED137A97ED157AD7ED177A67EE1B
:10163000277AC7ED127A97ED147AD7ED197A67EE0B
:10164000277AC7ED117A97ED187AD7ED157A67EEFC
:10165000277AC7ED107A97ED187AD7ED147A67EEEE
:10166000277AC7ED0F7ABB6CFB60D7ED177AB1EE26
:10167000677AD7ED147A67EE277AC7ED047ABB6DE7
:101680007B6197ED107AD7ED167A27EE277AD7EDA2
:10169000117A77EE277AC7ED067A97ED0F7AD7EDB4
:1016A000167A67EE277A97ED137A77EE677AC7EDA9
:1016B000077AD7ED187AB1EE677AD7ED177A67EE29
:1016C000277AC7ED087A97ED137AD7ED167A67EE89
:1016D000277A97ED0F7A77EE677AC7ED097A97ED5B
:1016E000117AD7ED167A27EE277AD7ED107A77EEB2
:1016F000277AC7ED0A7A97ED177AD7ED197A67EE50
:10170000277AC7ED0B7A97ED0C7AD7ED037A27EE9F
:10171000277AD7ED0D6AD7ED067A66EEA77A37EE0F
:10172000277AD7ED0E6AD7ED097A66EEA77A77EEBB
:10173000277A7B68C3ED007A97ED0C7AD7ED047AAF
:1017400027EE277AD7ED0D6AD7ED077A66EEA77AEE
:1017500037EE277AD7ED0E6AD7ED0A7A66EEA77ACA
:1017600077EE277A7B68C3ED017A97ED0C7AD7ED97
:10177000057A27EE277AD7ED0D6AD7ED087A66EE5F
:10178000A77A37EE277AD7ED0E6AD7ED0B7A66EE99
:10179000A77A77EE277A7B68C3ED027A07F16807AC
:1017A000BD4680BD80B483B000AF786039607B688F
:1017B00083EAE372A2EBE3723B689A4203DA4FF0EA
:1017C00000037B600EE07B68002B04DD7A683B68D9
:1017D000D31A7B6006E07B68002B03DA7A683B68EB
:1017E000D3187B607B68184607F10C07BD4680BCA8
:1017F000704700BF0000000090B589B000AF78606E
:1018000040F24463C2F20003D3ED007AF1EE677A4E
:10181000C7ED057A40F24463C2F20003D3ED017ACA
:10182000F1EE677AC7ED067A42F6C463C2F20003AE
:101830001B881BB206EE903AF8EEE67AF1EE677A74
:1018400017EE903A184619F035FE02460B46104640
:101850001946B1A3D3E9002319F080FE02460B46D6
:10186000104619461AF014F90346FB6141F23003A1
:10187000C2F200031B881BB207EE103AF8EEC77ADB
:10188000C7ED027A41F23003C2F200035B881BB25B
:1018900006EE903AF8EEE67AC7ED037A41F23003AD
:1018A000C2F200039B881BB207EE103AF8EEC77A2B
:1018B000C7ED047A07F1080207F114031046194630
:1018C000FFF760FE41F24403C2F2000393F83C309C
:1018D000012B46D142F6DC63C2F200035B78002B99
:1018E00029D140F28063C2F200031A6840F280639B
:1018F000C2F200031B68002B01DA03F13F034FEA39
:10190000A313D21A40F28063C2F200031A6040F2BD
:101910008063C2F20003D3ED007AB8EEE77AD7ED28
:10192000047A77EE277AFDEEE77A40F28063C2F21E
:101930000003C3ED007A97ED047A40F28063C2F2AF
:1019400000031B68002B01DA03F13F034FEAA313E6
:1019500006EE903AF8EEE67A77EE677AC7ED047A0B
:101960000EE097ED047A40F2A003C2F200031B8858
:1019700006EE903AF8EEE67A77EE677AC7ED047AEB
:10198000D7ED017AB8EE677AD7ED017AF8EE676A9B
:101990004CF6C843C0F60103D3ED007A76EEA77A81
:1019A00087EE277AD7ED046A40F28463C2F200031F
:1019B000D3ED007A76EEE77A27EE277A40F2846359
:1019C000C2F20003D3ED007A77EE277A40F2846307
:1019D000C2F20003C3ED007A40F28463C2F2000356
:1019E000D3ED007AB0EE670A17F0C2FB024641F26F
:1019F0004403C2F2000393F82D3010461946FFF756
:101A0000D1FE034607EE103AF8EEC77AC7ED047A26
:101A1000D7ED027AB0EE670A17F0AAFB024641F250
:101A20004403C2F2000393F82E3010461946FFF724
:101A3000B9FE034606EE903AF8EEE67AC7ED027A72
:101A4000D7ED037AB0EE670A17F092FB024641F237
:101A50004403C2F2000393F82E3010461946FFF7F4
:101A6000A1FE034607EE103AF8EEC77AC7ED037AF7
:101A700040F20063C2F200031A687B68D21840F299
:101A80000063C2F200031A6040F20463C2F2000372
:101A90001B6803F1010240F20463C2F200031A6002
:101AA00041F20803C2F200031C68D7ED027AB0EEDF
:101AB000670A17F05DFB0346E21841F20803C2F221
:101AC00000031A6041F20803C2F200035C68D7ED1C
:101AD000037AB0EE670A17F04BFB0346E21841F2B7
:101AE0000803C2F200035A6041F20803C2F2000385
:101AF0009C68D7ED047AB0EE670A17F039FB03460D
:101B0000E21841F20803C2F200039A6007F12407C9
:101B1000BD4690BDAFF30080399D52A246DF913F94
:101B200080B400AF41F20803C2F200034FF000029C
:101B30001A6041F20803C2F200034FF000025A603B
:101B400041F20803C2F200034FF000029A6040F233
:101B50000463C2F200034FF000021A6040F2006317
:101B6000C2F200034FF000021A60BD4680BC70470D
:101B7000B0B58AB000AF786040F24463C2F20003AF
:101B8000D3ED007AB0EE670A17F0B8FA87ED080ACD
:101B900040F24463C2F20003D3ED007AB0EE670A6C
:101BA00017F02EFB87ED070A40F24463C2F20003F0
:101BB000D3ED017AB0EE670A17F0A0FA87ED060AB6
:101BC00040F24463C2F20003D3ED017AB0EE670A3B
:101BD00017F016FB87ED050A7B6893ED007AD7EDC9
:101BE000067A27EE277A7B68D3ED016AD7ED077A6C
:101BF00066EEA76AD7ED057A66EEA77A37EE277A02
:101C00007B68D3ED026AD7ED057A66EEA76AD7ED59
:101C1000087A66EEA77A77EE277AC7ED047A7B68B2
:101C200093ED017AD7ED087A27EE277A7B68D3ED1A
:101C3000026AD7ED077A66EEA77A77EE677AC7ED84
:101C4000037A97ED030AD7ED040A17F015FBB0EEFF
:101C5000407ADFED297A67EE277A17EE900A19F0BD
:101C600029FC02460B461046194621A3D3E900235E
:101C700019F09EFD02460B4614461D4640F22C63A9
:101C8000C2F200031B68184619F014FC02460B460A
:101C90002046294619F0B0FA02460B46104619466E
:101CA0004FF000024FF00003C4F2240319F080FD4E
:101CB00002460B461046194619F0EAFE0346BB6081
:101CC00097ED020A17F054FA0346FB84B7F9263061
:101CD000002B04DAFB8C03F5B4739BB2FB84FB8C02
:101CE0001BB2184607F12807BD46B0BDAFF3008010
:101CF000182D4454FB2109400000E144AFF300805B
:101D000090B52DED028B8BB000AF4FF000033B621E
:101D100006F088FEF86140F26463C2F200031B68BB
:101D2000FA69D31ABB61D7ED067AB8EE677A42F644
:101D30009C63C2F20003D3ED037A67EE277AC7ED06
:101D4000057A40F26463C2F20003FA691A604FF048
:101D500000037B62A5E041F20003C2F200037A6A4D
:101D600033F812301BB206EE103AB8EEC67AD7ED51
:101D7000057A67EE277A7B6A4FEA830307F1280228
:101D8000D318A3F12403C3ED007A41F24403C2F255
:101D9000000393F82C30002B5CD040F26863C2F251
:101DA00000037A6A4FEA82029B1893ED007A41F2AF
:101DB0004403C2F2000393F82C3006EE103AF8EE1A
:101DC000C67AF7EE006AC6EEA77AF7EE006A76EEFC
:101DD000E77A27EE277A41F21803C2F200037A6A03
:101DE00033F812301BB207EE903AF8EEE76A41F290
:101DF0004403C2F2000393F82C3006EE103AF8EEDA
:101E0000C67AB7EE006AC6EE277A66EEA77A77EE54
:101E1000277A40F26863C2F200037A6A4FEA8202CC
:101E20009B18C3ED007A40F26863C2F200037A6A3D
:101E30004FEA82029B18D3ED007AFDEEE77A17EEA7
:101E4000903A99B241F23003C2F200037A6A23F861
:101E500012100DE041F21803C2F200037A6A33F85F
:101E6000121041F23003C2F200037A6A23F8121012
:101E700041F23003C2F200037A6A33F812301AB228
:101E800041F23003C2F20003796A33F811301BB219
:101E900003FB02F33A6AD3183B627B6A03F1010346
:101EA0007B627B6A022B7FF656AF3B6A4FF064027F
:101EB00002FB03F240F2A003C2F200031B881946A2
:101EC00040F2A003C2F200031B8803FB01F392FB64
:101ED000F3F33B6207F1040341F23800C2F2000061
:101EE0001946FFF74FFB4FF0080002F0F7FD0346DD
:101EF000002B09D007F1040340F27460C2F2000025
:101F00001946FFF73FFB08E007F1040340F2000029
:101F1000C2F200001946FFF735FB3B6A9BB2482B23
:101F200050D93B6A9BB2842B4CD84FF000037B62A4
:101F300045E041F23803C2F200037A6A4FEA8202B6
:101F40009B1893ED007A41F20813C2F20003B3F834
:101F5000F03006EE903AF8EE667A27EE277A41F2F4
:101F60003003C2F200037A6A33F812301BB206EE75
:101F7000103AF8EEC67A37EE277A41F20813C2F229
:101F80000003B3F8F03007EE903AF8EE676AF7EE28
:101F9000007A76EEA77AF7EE006AC6EEA77A67EEC9
:101FA000277A41F23803C2F200037A6A4FEA8202CA
:101FB0009B18C3ED007A7B6A03F101037B627B6AA5
:101FC000022BB6D94FF0080002F088FD0346002B23
:101FD0004CD04FF000037B6245E040F27463C2F2E4
:101FE00000037A6A4FEA82029B1893ED007A41F26D
:101FF0000813C2F20003B3F8F23006EE103AF8EE1E
:10200000467A27EE277A41F22403C2F200037A6A65
:1020100033F812301BB206EE903AF8EEE67A37EE5D
:10202000277A41F20813C2F20003B3F8F23007EE48
:10203000903AF8EE676AF7EE007A76EEA77AF7EE56
:10204000006AC6EEA77A67EE277A40F27463C2F29E
:1020500000037A6A4FEA82029B18C3ED007A7B6A1A
:1020600003F101037B627B6A022BB6D941F238038C
:10207000C2F2000393ED027A40F20863C2F2000359
:102080001B881BB206EE103AF8EEC67AB4EEE77A79
:10209000F1EE10FA07DD42F6DC63C2F200034FF006
:1020A00001025A7306E042F6DC63C2F200034FF00D
:1020B00000025A7341F23803C2F2000393ED017A31
:1020C00041F23803C2F20003D3ED027AB0EE470AC0
:1020D000F0EE670A17F0D0F8F0EE407A40F2446371
:1020E000C2F20003C3ED007A41F23803C2F20003EA
:1020F000D3ED007AB1EE678A41F23803C2F20003F1
:1021000093ED017A41F23803C2F20003D3ED017A74
:1021100027EE277A41F23803C2F20003D3ED026AB8
:1021200041F23803C2F20003D3ED027A66EEA77AD9
:1021300077EE277AB0EE670A17F060FAF0EE407A91
:10214000B0EE480AF0EE670A17F096F8F0EE407A23
:1021500040F24463C2F20003C3ED017A40F24463EB
:10216000C2F200031B68184619F0A4F902460B4698
:102170001046194653A3D3E9002319F0EFF902469C
:102180000B461046194619F083FC034600EE103A40
:1021900016F0EEFF03469AB240F24063C2F200032B
:1021A0001A8040F24463C2F200035B68184619F0DB
:1021B00081F902460B461046194642A3D3E9002393
:1021C00019F0CCF902460B461046194619F060FC8E
:1021D000034600EE103A16F0CBFF03469AB240F2E7
:1021E0004063C2F200035A804FF0080002F076FC10
:1021F0000346002B0DD040F27460C2F20000FFF7DE
:10220000B7FC03461A4642F6C463C2F200031A80C2
:102210000CE040F20000C2F20000FFF7A9FC034608
:102220001A4642F6C463C2F200031A80B869FFF787
:10223000E3FA41F24403C2F2000393F86A30002B40
:1022400038D041F23803C2F2000393ED027A40F233
:10225000A003C2F200031B8807EE903AF8EEE76A8B
:10226000DFED177A66EEA77AC7EE277AFDEEE77AFA
:10227000C7ED047A41F24403C2F2000393F86A30D6
:102280001C463B69C3F1640318464FF000014FF050
:10229000640206F023FD034603FB04F3002B01DA7E
:1022A00003F107034FEAE3039AB240F22863C2F254
:1022B00000031A8007F12C07BD46BDEC028B90BDD0
:1022C0000000C8423B597E90A9E78140AFF30080EF
:1022D00090B589B000AF06F0A5FBF86140F24C6301
:1022E000C2F200031B68FA69D31ABB61BA6946F2ED
:1022F000A7139A4202D84FF00003C1E240F24C63A8
:10230000C2F20003FA691A6040F62E53C2F20003CB
:102310001B88002B76D040F25063C2F200031A688B
:1023200040F25063C2F200031B68002B01DA03F194
:1023300007034FEAE303D21A40F25063C2F20003EC
:102340001A6040F21463C2F200031A6841F24403B7
:10235000C2F2000393F82F3003F1FF33B2FBF3F224
:1023600040F25063C2F200031B68D3181A4640F2D1
:102370005063C2F200031A6040F25063C2F20003DD
:102380001B68002B01DA03F107034FEAE30307EEB2
:10239000903AB8EEE77ADFEDEA7AC7EE277AB0EE48
:1023A000670ADFEDE80A16F069FFF0EE407AB7EE53
:1023B000007A37EE677ADFEDE47A67EE277AFDEE92
:1023C000E77A40F25463C2F20003C3ED007A40F2B0
:1023D0005863C2F200034FF000021A6040F25C63DF
:1023E000C2F200034FF000021A6040F62E53C2F210
:1023F00000031B8803F1FF339AB240F62E53C2F25A
:1024000000031A8040F21463C2F200031A6841F21A
:102410004403C2F2000393F82F3003F1FF33B2FB01
:10242000F3F307EE903AB8EE677ADFEDC57AC7EEC0
:10243000277AB0EE670ADFEDC30A16F01FFFF0EE51
:10244000407AB7EE007A37EE677ADFEDBF7A67EE53
:10245000277AB0EE670A16F08BFE786140F254637B
:10246000C2F200031B687A69D31A7B6140F21863D9
:10247000C2F20003D3ED007AB8EEE77A41F24403EA
:10248000C2F20003D3ED0C7A27EE277AD7ED057A56
:10249000F8EEE76A41F24403C2F20003D3ED0C7A8E
:1024A000B7EE006A76EE677A66EEA77A77EE277A5D
:1024B000B0EE670A16F05CFE024640F21863C2F204
:1024C00000031A6040F20063C2F20003D3ED007A09
:1024D000B8EE677ADFED9D7A67EE277AC7ED047A6A
:1024E00041F20803C2F20003D3ED027AB8EEE77AB4
:1024F00041F21403C2F20003D3ED007A27EE277AEB
:1025000040F20063C2F20003D3ED007AF8EE677A7E
:1025100027EE277A40F20463C2F20003D3ED007A7B
:10252000F8EEE77AC7EE277AC7ED037A97ED037ADC
:10253000F6EE007A27EE277AD7ED047A27EE277A8F
:1025400040F25863C2F20003D3ED006AD7ED047A7B
:1025500066EEA77A37EE277A40F25C63C2F2000398
:10256000D3ED007A77EE277A40F25C63C2F2000383
:10257000C3ED007A41F24403C2F2000393ED0E7AF8
:1025800040F25C63C2F20003D3ED007A27EE277AB3
:1025900040F21863C2F20003D3ED007AF8EEE76A66
:1025A00041F24403C2F20003D3ED0E7AB7EE006AA3
:1025B00076EE677A66EEA77A77EE277A40F25C636A
:1025C000C2F20003C3ED007A40F25C63C2F2000382
:1025D000D3ED007AFDEEE77A41F22003C2F2000368
:1025E000C3ED007A40F25863C2F2000393ED007A23
:1025F000D7ED037A77EE277A40F25863C2F20003F0
:10260000C3ED007AFFF78CFA41F22C03C2F200030B
:102610001A6841F22003C2F200031B68D31A18465D
:102620004FF6D461CFF6FF714FF4967206F056FB69
:10263000B860B8684FF00A01FFF7B4F8B86041F22B
:102640004403C2F200031B79BA6802FB03F3002BB8
:1026500001DA03F17F034FEAE31318466FF0C70175
:102660004FF0C80206F03AFB024640F21C63C2F289
:1026700000031A6041F24403C2F200039B7BBA6874
:1026800002FB03F3002B01DA03F13F034FEAA3132C
:102690001A4640F22063C2F200031B68D21840F2CF
:1026A0002063C2F200031A6040F22063C2F200030A
:1026B0001B68184643F6B041CFF6FF714CF250321A
:1026C00006F00CFB024640F22063C2F200031A60DF
:1026D00040F22063C2F200031B68002B01DA03F210
:1026E000FF134FEA63231A4640F21C63C2F2000351
:1026F0001B68D21840F21C63C2F200031A6040F259
:102700001863C2F200031A6840F26063C2F2000369
:102710001B68D31A07EE903AB8EEE77ADFED0C7A31
:1027200027EE277AD7ED067AF8EE677AC7EE277A92
:10273000FDEEE77AC7ED017A40F218630AE000BFC8
:1027400080E6C547B1DC423ED048874ABD37863572
:1027500000247449C2F200031A6840F26063C2F2B6
:1027600000031A6078684FF6D461CFF6FF714FF41A
:10277000967206F0B3FA786078684FF00A01FFF7B6
:1027800011F8786041F24403C2F2000393ED0D7A30
:1027900040F25863C2F20003D3ED007A27EE277AA5
:1027A000D7ED017AF8EEE76A41F24403C2F2000382
:1027B000D3ED0D7AB7EE006A76EE677A66EEA77A09
:1027C00077EE277A40F25863C2F20003C3ED007A35
:1027D00040F25863C2F20003D3ED007AFDEEE77ACF
:1027E00017EE903A18464FF61841CFF6FF714FF4A6
:1027F0007A7206F073FA034607EE103AF8EEC77ADB
:1028000040F25863C2F20003C3ED007A40F258630D
:10281000C2F20003D3ED007AB0EE670A16F0A8FC0E
:10282000386038684FF00501FEF7BCFF386040F2B1
:102830002463C2F200033A681A6040F21C63C2F2D9
:1028400000031C6841F24403C2F200031B7E3A6895
:1028500002FB03F3002B01DA03F10F034FEA23130A
:1028600018466FF095014FF0960206F037FA0346CE
:10287000E21A40F21C63C2F200031A604FF0010337
:10288000184607F12407BD4690BD00BF80B483B051
:1028900000AF0346FB714FF46143CEF2000397F99A
:1028A00007204FEA5212F97901F01F014FF00100A1
:1028B00000FA01F143F8221007F10C07BD4680BC75
:1028C000704700BF80B582B000AF4FF48063C4F2A0
:1028D00002031A6940F29663C2F200031B88134098
:1028E000002B08D006F09EF8024640F2A863C2F220
:1028F00000031A6024E006F095F8786040F2A863BF
:10290000C2F200031B687A689A4219D940F2A863A0
:10291000C2F200031B687A68D31A3B6040F2A463DA
:10292000C2F2000319683A6843F6BF43C2F2B62305
:1029300083FB02034FEAE3004FEAE273C31A0B6022
:1029400040F29863C2F200031B68184611F004F8C5
:1029500007F10807BD4680BD80B500AFFFF7B2FFA5
:1029600080BD00BF80B500AFFFF7ACFF80BD00BFEA
:1029700080B586B000AF0346FB71FB79002B02D017
:10298000012B24D047E040F29463C2F200034FF4DD
:1029900080721A8040F29663C2F200034FF4007214
:1029A0001A8040F29863C2F200034FF400721A607A
:1029B00040F29C63C2F200034FF009021A7040F229
:1029C0009D63C2F200034FF017021A7023E040F239
:1029D0009463C2F200034FF001021A8040F2966342
:1029E000C2F200034FF002021A8040F29863C2F272
:1029F00000034FF002021A6040F29C63C2F200032F
:102A00004FF001021A7040F29D63C2F200034FF0D2
:102A100007021A7000BF40F29463C2F200031B88E1
:102A2000BB824FF01003BB754FF00203FB7507F13B
:102A300014034FF48060C4F20200194616F0EAFA5B
:102A400040F29663C2F200031B88BB824FF004037E
:102A5000BB7507F114034FF48060C4F202001946FD
:102A600016F0D8FA40F29863C2F200031B681846C9
:102A700010F072FF40F29863C2F200031B68FB6023
:102A80004FF000033B744FF010037B744FF00103D1
:102A9000BB7407F10C03184610F096FE40F29D63DC
:102AA000C2F200031B785BB21846FFF7EFFE05F099
:102AB000E7FF0346A3F13C0240F2A063C2F2000329
:102AC0001A6007F11807BD4680BD00BF80B584B00D
:102AD00000AF786005F0D4FFF86040F2A063C2F266
:102AE00000031B6803F13C02FB689A4224D840F2C1
:102AF000A063C2F20003FA681A6040F2A463C2F253
:102B000000037A681A604FF48063C4F2020340F253
:102B10009462C2F2000212881A834FF00B0006F092
:102B200047F84FF48063C4F2020340F29462C2F2A9
:102B3000000212885A8300E000BF07F11007BD466B
:102B400080BD00BF80B582B000AF0346FB7142F686
:102B50004473C2F200035B7B002B07D040F2B563E5
:102B6000C2F200034FF001021A7006E040F2B563B2
:102B7000C2F200034FF000021A704FF4007001F02F
:102B8000FDFF0346002B70D040F6F663C2F200034F
:102B90001B8819B241F24403C2F2000393F8AC302F
:102BA0001A4613464FEA83039B1899422EDD42F6DC
:102BB000DC63C2F200035B78002B27D040F2B663DF
:102BC000C2F200034FF001021A7040F6F663C2F23F
:102BD00000031B8819B241F24403C2F2000393F8C8
:102BE000AC301A4641F24403C2F2000393F8AD3010
:102BF000D21813464FEA83039B18994206DD40F230
:102C0000B663C2F200034FF002021A7040F6F66398
:102C1000C2F200031B8819B241F24403C2F200035E
:102C200093F8AC301A4613464FEA83039B18994237
:102C30000DDD42F6DC63C2F200035B78002B06D1A7
:102C400040F2B663C2F200034FF002021A7040F67F
:102C5000F663C2F200031B88002B06D140F2B66374
:102C6000C2F200034FF000021A704FF0200001F092
:102C700035FF0346002B23D042F64473C2F2000313
:102C80009B7A002B06D142F64473C2F20003DB7A32
:102C9000002B0ED042F6DC63C2F20003DB7A002B7D
:102CA00007D140F2B763C2F200034FF001021A707D
:102CB00006E040F2B763C2F200034FF000021A7060
:102CC00040F2B663C2F200031B78022B0AD14FF028
:102CD0004C004FF04E014FF04E024FF0440300F015
:102CE00099F892E040F2B663C2F200031B78012B20
:102CF0000AD14FF053004FF04D014FF04C024FF00E
:102D00004D0300F087F880E040F2B763C2F20003A1
:102D10001B78012B0AD14FF053004FF053014FF0B5
:102D20004E024FF04D0300F075F86EE040F2B563CF
:102D3000C2F200031B78012B0AD14FF053004FF071
:102D400053014FF053024FF04D0300F063F85CE085
:102D5000FB79042B0AD14FF053004FF04D014FF097
:102D60004D024FF0440300F055F84EE0FB79022B82
:102D70000AD14FF053004FF053014FF04D024FF086
:102D8000440300F047F840E0FB79012B0AD14FF0F3
:102D900053004FF04D014FF04E024FF0440300F04E
:102DA00039F832E040F2B863C2F200031B78012B1D
:102DB00011D142F6DC63C2F200035B78002B0AD02B
:102DC0004FF053004FF053014FF04D024FF04E03C0
:102DD00000F020F819E040F6E863C2F200031B7827
:102DE000002B04D04FF0320000F0C4F80DE040F2A8
:102DF000AC63C2F200034FF000021A704FF440635C
:102E0000C4F202034FF400625A8307F10807BD467B
:102E100080BD00BF80B584B000AFF871B9717A7120
:102E20003B71FB793B72BB797B727B79BB723B79DF
:102E3000FB7240F2B463C2F200031B7807F1100288
:102E4000D31813F8083CA3F144030A2B28D801A295
:102E500052F823F0912E0008A12E0008A12E0008A0
:102E6000A12E0008A12E0008A12E0008A12E000806
:102E7000A12E0008892E0008812E0008992E000836
:102E80004FF06403FB810FE04FF0C803FB810BE0C0
:102E90004FF4FA63FB8107E04FF00003FB8103E08E
:102EA0004FF03203FB8100BF40F2B463C2F2000373
:102EB0001B78022B06D8FB89002B03D0FB89184610
:102EC00000F058F840F2B463C2F200031B78022B02
:102ED00019D905F0D5FD0246FB89D21A40F2B0633C
:102EE000C2F200031B689A420DD940F2B463C2F2E9
:102EF00000034FF000021A7040F6E863C2F20003CC
:102F00004FF000021A7040F2AD63C2F200031B786A
:102F1000012B02D0FB89002B28D140F2B463C2F20E
:102F200000031B78022B0CD840F2B463C2F20003FA
:102F30001B7803F10103DAB240F2B463C2F200037A
:102F40001A7040F2AD63C2F200034FF000021A7033
:102F500040F2AC63C2F200034FF000021A704FF46B
:102F60004063C4F202034FF400625A8307F1100772
:102F7000BD4680BD80B582B000AF0346FB8040F205
:102F8000AC63C2F200031B78002B22D105F078FD60
:102F9000024640F2B063C2F200031B6803F1320341
:102FA0009A4216D340F2AC63C2F200034FF0010222
:102FB0001A704FF44063C4F202034FF400621A83A4
:102FC00005F05EFD024640F2B063C2F200031A60F3
:102FD00043E040F2AC63C2F200031B78002B3CD00C
:102FE00005F04EFD0246F98840F2B063C2F20003DC
:102FF0001B68CB189A4230D340F2AC63C2F2000394
:103000004FF000021A704FF44063C4F202034FF411
:1030100000625A8305F034FD024640F2B063C2F20A
:1030200000031A6040F6E863C2F200031B78002B2D
:103030000CD040F6E863C2F200031B7803F1FF33C3
:10304000DAB240F6E863C2F200031A7040F2AD63F0
:10305000C2F200034FF001021A7007F10807BD46E3
:1030600080BD00BF80B58AB000AF786039604FF096
:1030700000037B624FF000033B624FF00003FB61F3
:103080004FF00003BB617B681B8A9BB27B627B6A4B
:1030900023F440537B623B68DB887A6A13437B628C
:1030A0007B6A9AB27B681A827B689B899BB27B623F
:1030B0007B6A23F4B05323F00C037B623B689A884D
:1030C0003B681B8913439AB23B685B8913439BB2ED
:1030D0007A6A13437B627B6A9AB27B689A817B68C7
:1030E0009B8A9BB27B627B6A23F440737B623B6862
:1030F0009B897A6A13437B627B6A9AB27B689A8265
:1031000007F10803184605F037FA7A684FF4805340
:10311000C4F201039A4206D07A684FF4A053C4F275
:1031200001039A4202D17B693B6201E03B693B6249
:103130007B689B899BB29BB21BB2002B0FDA3A6A69
:1031400013464FEA83039B184FEA83029A183B68A1
:103150001B684FEA4303B2FBF3F3FB610EE03A6AEC
:1031600013464FEA83039B184FEA83029A183B6881
:103170001B684FEA8303B2FBF3F3FB61FA6948F281
:103180001F53C5F2EB13A3FB02134FEA53134FEA8D
:1031900003137B627B6A4FEA13134FF0640202FB56
:1031A00003F3FA69D31ABB617B689B899BB29BB21C
:1031B0001BB2002B12DABB694FEAC30303F13202E0
:1031C00048F21F53C5F2EB13A3FB02134FEA53134C
:1031D00003F007037A6A13437B6211E0BB694FEA8D
:1031E000031303F1320248F21F53C5F2EB13A3FBA2
:1031F00002134FEA531303F00F037A6A13437B62FF
:103200007B6A9AB27B681A8107F12807BD4680BDA8
:1032100080B483B000AF78607B684FF416521A60B8
:103220007B684FF000029A807B684FF00002DA80E2
:103230007B684FF000021A817B684FF00C025A81C4
:103240007B684FF000029A8107F10C07BD4680BCF5
:10325000704700BF80B483B000AF78600B46FB704E
:10326000FB78002B08D07B689B899BB243F400530A
:103270009AB27B689A8107E07B689B899BB223F4B2
:1032800000539AB27B689A8107F10C07BD4680BC57
:10329000704700BF80B483B000AF78607B689B88C4
:1032A0009BB24FEAC3534FEAD3539BB2184607F180
:1032B0000C07BD4680BC704780B483B000AF786017
:1032C00013460A467A807B707B78002B08D07B6897
:1032D0009B8A9AB27B8813439AB27B689A820AE0EF
:1032E0007B689B8A9AB27B886FEA03039BB2134088
:1032F0009AB27B689A8207F10C07BD4680BC704782
:1033000080B487B000AF786013460A467A807B703D
:103310004FF000033B614FF00003FB604FF00003F0
:10332000BB604FF000037B617B687B617B88DBB215
:103330004FEA5313DBB23B617B8803F01F03FB6052
:10334000FB684FF0010202FA03F3BB603B69012BFB
:1033500004D17B6903F10C037B610BE03B69022B19
:1033600004D17B6903F110037B6103E07B6903F106
:1033700014037B617B78002B06D07B697A69116826
:10338000BA680A431A6007E07B697A691168BA680B
:103390006FEA02020A401A6007F11C07BD4680BCB2
:1033A000704700BF80B582B000AF0346FB7141F2A9
:1033B000B443C2F200039B6818464FF05E010EF062
:1033C00095FE41F2B443C2F200039A68FB791046BD
:1033D00019460EF08BFE07F10807BD4680BD00BF01
:1033E00080B500AF41F2B443C2F200039B681846B7
:1033F0004FF05E010EF07AFE80BD00BF80B582B056
:1034000000AF0346FB71FB795E2B14D141F2B4434C
:10341000C2F200039B6818464FF05D010EF066FE95
:1034200041F2B443C2F200039B6818464FF03E01DC
:103430000EF05CFE21E0FB795D2B14D141F2B44328
:10344000C2F200039B6818464FF05D010EF04EFE7D
:1034500041F2B443C2F200039B6818464FF03D01AD
:103460000EF044FE09E041F2B443C2F200039A6850
:10347000FB79104619460EF039FE07F10807BD46E4
:1034800080BD00BF80B584B000AF0346FB80FB88E1
:10349000FB73FB7B1846FFF7B1FFB7F906304FEA25
:1034A00023239BB2FB73FB7B1846FFF7A7FF07F1B3
:1034B0001007BD4680BD00BF80B582B000AF4FF0A1
:1034C00000037B602FE07B68DBB203F12403DBB2F7
:1034D0001846FFF767FF41F23003C2F200037A6833
:1034E00033F812301BB206EE903AB8EEE67A40F2AC
:1034F000A003C2F200031B8806EE903AF8EEE67ACB
:1035000087EE277ADFED0B7A67EE277AFDEEE77A12
:1035100017EE903A9BB21BB21846FFF7B3FF7B68D9
:1035200003F101037B607B68022BCCDD07F1080708
:10353000BD4680BD00007A4480B500AF4FF010005A
:10354000FFF730FF40F21863C2F200031A6848F236
:103550001F53C5F2EB1383FB02134FEA63114FEACB
:10356000E273CB1A9BB21BB21846FFF78BFF4FF0EA
:103570002100FFF717FF40F21863C2F200031A6838
:1035800048F21F53C5F2EB1383FB02134FEA63119A
:103590004FEAE273CB1A4FF0640101FB03F3D31A35
:1035A000002BB8BF5B429BB21BB21846FFF76AFF05
:1035B00080BD00BF80B500AF4FF00200FFF7F2FE04
:1035C00042F6D863C2F200031B881AB246F2676360
:1035D000C6F2666383FB02134FEAA3014FEAE2736C
:1035E000CB1A9BB21BB21846FFF74CFF80BD00BF41
:1035F00080B582B000AF05F043FA024644F6D353DB
:10360000C1F26203A3FB02134FEA93137B607A6853
:1036100048F68903C8F68803A3FB02134FEA531147
:1036200048F68903C8F68803A3FB01234FEA531227
:1036300013464FEA03139B1A4FEA8303CA1A134631
:10364000FB704FF01700FFF7ADFEFB784FEA032346
:103650009BB21BB21846FFF715FF4FF01800FFF79B
:10366000A1FE796848F68903C8F68803A3FB012305
:103670004FEA531213464FEA03139B1A4FEA830390
:10368000CA1A93B21BB21846FFF7FCFE07F10807EF
:10369000BD4680BD80B500AF4FF01300FFF782FE3E
:1036A00042F66873C2F200031B6883EAE372A2EB7E
:1036B000E3724BF28953C1F2F84383FB02134FEAE2
:1036C00063314FEAE273CB1A9BB21BB21846FFF785
:1036D000D9FE4FF01B00FFF765FE42F66873C2F299
:1036E00000031B6883EAE372A2EBE37246F26763AE
:1036F000C6F2666383FB02134FEAA3014FEAE2734B
:10370000CA1A48F6AD33C6F6DB0383FB02134FEA51
:1037100023314FEAE273CB1A42F2107101FB03F33B
:10372000D31A9BB21BB21846FFF7ACFE4FF0230032
:10373000FFF738FE42F66873C2F200031B68002BE5
:1037400002DA4FF0530301E04FF04E031BB218466C
:10375000FFF798FE4FF01200FFF724FE42F6687361
:10376000C2F200035B6883EAE372A2EBE3724BF2FE
:103770008953C1F2F84383FB02134FEA63314FEAE6
:10378000E273CB1A9BB21BB21846FFF77BFE4FF0D9
:103790001A00FFF707FE42F66873C2F200035B6887
:1037A00083EAE372A2EBE37246F26763C6F26663F2
:1037B00083FB02134FEAA3014FEAE273CA1A48F6E9
:1037C000AD33C6F6DB0383FB02134FEA23314FEA26
:1037D000E273CB1A42F2107101FB03F3D31A9BB2CE
:1037E0001BB21846FFF74EFE4FF02200FFF7DAFD3E
:1037F00042F66873C2F200035B68002B02DA4FF0F6
:10380000570301E04FF045031BB21846FFF73AFE9D
:1038100080BD00BF80B500AF4FF03000FFF7C2FDA4
:1038200040F22463C2F200031B689BB21BB218462D
:10383000FFF728FE80BD00BF80B582B000AF42F622
:103840002C73C2F200031A7840F2A813C2F20003EC
:103850001B78B2FBF3F3DBB27B607B6840F634028B
:1038600002FB03F34FEA530240F63143C3F2C303B2
:10387000A3FB02134FEA93037B6040F2C663C2F2DC
:1038800000031B881A4640F2A813C2F200031B78FB
:1038900092FBF3F103FB01F3D31A7B807B884FEAA1
:1038A00003133B807B689BB24FEA03239AB23B88A9
:1038B00013433B807B6803F470634FEA13239AB28F
:1038C0003B8813433B804FF00600FFF76BFD3B88BE
:1038D0001BB21846FFF7D6FD40F2C663C2F20003E2
:1038E0001B8803F101039AB240F2C663C2F20003DF
:1038F0001A8040F2C663C2F200031B881A4640F2E7
:10390000A813C2F200031B7892FBF3F103FB01F34F
:10391000D31A9AB240F2C663C2F200031A8007F1CA
:103920000807BD4680BD00BF80B582B000AF42F63B
:103930002C73C2F200031B784FF06E0202FB03F2FD
:1039400040F63143C3F2C30383FB02134FEAA301E2
:103950004FEAE273CB1AFB804FF03A00FFF722FDEB
:10396000FA8848F21F53C5F2EB13A3FB02134FEA88
:1039700053139BB29BB21BB21846FFF783FD4FF067
:103980003B00FFF70FFDFA8848F21F53C5F2EB1317
:10399000A3FB02134FEA53134FF0640101FB03F33F
:1039A000D31A9BB203F1050246F26763C6F266635F
:1039B00083FB02134FEAA3014FEAE273CB1A9BB2D7
:1039C0001BB21846FFF75EFD07F10807BD4680BD34
:1039D00080B500AF4FF01400FFF7E4FC42F6C4637B
:1039E000C2F200031B881BB21846FFF74BFD4FF0D5
:1039F0001C00FFF7D7FC4FF00000FFF743FD80BD30
:103A000080B500AF4FF4004001F0B8F8034683F0F2
:103A10000103DBB2002B07D041F20813C2F200030E
:103A20004FF0000283F8292141F20813C2F200038B
:103A300093F82931012B09D141F2B443C2F20003BA
:103A400041F2C842C2F200029A6009E041F2B44376
:103A5000C2F200031A6841F2B443C2F200039A6052
:103A600080BD00BF80B582B000AF41F20813C2F242
:103A7000000393F82931002B06D142F6DC63C2F231
:103A800000035B78002B02D04FF0010301E04FF000
:103A90000003FB7140F2BC63C2F200031B78FA79A9
:103AA0009A421ED041F20813C2F2000393F8293162
:103AB000002B10D1FB79002B04D04FF4165010F0DE
:103AC00013FA08E041F20813C2F20003D3F82031E0
:103AD000184610F009FA40F2BC63C2F20003FA790A
:103AE0001A7007F10807BD4680BD00BF80B500AF62
:103AF00041F20813C2F2000393F82931002B06D1DA
:103B000042F6DC63C2F200035B78002B75D041F211
:103B1000B443C2F200039B6818460EF0F9FA03465C
:103B2000002B6CD104F0ACFF024640F2C063C2F23D
:103B300000031B68D31A7C2B62D904F0A1FF024654
:103B400040F2C063C2F200031A6040F2C463C2F2E2
:103B500000031B7803F10103DAB240F2C463C2F23E
:103B600000031A70FFF7A8FCFFF754FEFFF738FCBC
:103B700040F2C463C2F200031B7803F00303DBB21C
:103B8000002B05D1FFF7D8FCFFF722FFFFF728FC39
:103B900040F2C463C2F200031B7803F00703DBB2F8
:103BA000002B17D1FFF706FD4FF0020000F0E6FFF3
:103BB0000346002B03D0FFF73FFEFFF7B5FE4FF0A3
:103BC000200000F08BFF0346002B01D0FFF762FDC1
:103BD000FFF706FC40F2C463C2F200031B78282BF7
:103BE0000ED140F2C463C2F200034FF000021A701B
:103BF000FFF7FEFCFFF7F4FB02E000BF00E000BFB0
:103C000080BD00BF80B584B000AF40F2C863C2F28F
:103C100000031B78002B23D14FF07A033B7142F64F
:103C2000C463C2F200031B881BB2C3F1B4034FEAA2
:103C3000D372D3184FEA6303DBB27B7107F104033D
:103C40004FF06D004FF0FF014FF00202FCF70AFF4A
:103C500040F2C863C2F200034FF001021A7085E01F
:103C600040F2C863C2F200031B78012B52D14FF01F
:103C700079033B7140F24063C2F200031B881AB221
:103C800046F26763C6F2666383FB02134FEAA30141
:103C90004FEAE273CB1A9BB21BB203F15A031846E8
:103CA0004FF000014FF0B40205F018F80346DBB204
:103CB0007B7140F24063C2F200035B881AB246F2A5
:103CC0006763C6F2666383FB02134FEAA3014FEA00
:103CD000E273CB1A9BB21BB203F15A0318464FF0A2
:103CE00000014FF0B40204F0F9FF0346DBB2BB71F0
:103CF00007F104034FF06D004FF0FF014FF0030296
:103D0000FCF7B0FE40F2C863C2F200034FF00202BB
:103D10001A702BE040F2C863C2F200031B78022B3A
:103D200024D14FF064033B714FF001037B7142F6E5
:103D3000DC63C2F200035B78002B03D04FF0010379
:103D4000BB7102E04FF00003BB7107F104034FF0B9
:103D50006D004FF0FF014FF00302FCF783FE40F2CD
:103D6000C863C2F200034FF000021A7007F1100797
:103D7000BD4680BD80B584B000AF78607B68FB60D5
:103D800021E0FB681B784CF6CC40C0F601001946D8
:103D900018F056F8B860BB68002B10D0BA684CF623
:103DA000CC43C0F60103D11AFA687B68D31ADAB2A1
:103DB00041F20813C2F200035B1883F80A21FB6882
:103DC00003F10103FB60FB681B78002BD9D107F1DD
:103DD0001007BD4680BD00BF80B485B000AF4FF076
:103DE0000003C0F60E037B604FF00003FB727B689C
:103DF0001A784CF6D543C0F601031B789A4202D0DC
:103E00004FF000032AE07B685B88B3F55F7F08D141
:103E10007B681B79BE2B04D17B6893F87933EF2B39
:103E200002D04FF0000319E07B68FB6008E0FB68FC
:103E30001A78FB7A5340FB72FB6803F10103FB60C5
:103E40007B6803F55F72FB689A42F0D8FB7A002B1F
:103E500002D04FF0000301E04FF00103184607F1D4
:103E60001407BD4680BC7047F0B583B000AFFFF7C4
:103E7000B3FF0346002B03D14FF00A0004F0C6FE47
:103E800041F20810C2F200004FF00001C0F60E012E
:103E90004FF45F7217F076FE41F20813C2F200038E
:103EA00093F87833022B07D941F20813C2F20003CA
:103EB0004FF0000283F8782341F20813C2F20003A6
:103EC00093F878334FF0C40202FB03F303F59472C6
:103ED00041F20813C2F20003D31803F1040241F2C5
:103EE0004403C2F2000319464FF0C40308461146CA
:103EF0001A4617F047FE4FF00003FB7130E0F979E6
:103F000041F24403C2F2000393F82030FA79F879C1
:103F100000FB02F2A2F1190202FB03F303F6C41341
:103F2000FA7902FB03F241F24403C2F20003DB7FA1
:103F300003FB02F248F6AD33C6F6DB0383FB020354
:103F40004FEAA3204FEAE273C31A9AB242F6CC7347
:103F5000C2F2000323F81120FB7903F10103FB7186
:103F6000FB79062BCBD94FF00003FB71A8E0FB795E
:103F70009BB21A464FEA8202D3184FEA43039AB221
:103F800041F24403C2F2000393F82130D31A9BB2EA
:103F9000BB804FF00103BB71B7F90430002B08DD83
:103FA00041F24403C2F2000393F82130C3F16403E9
:103FB000BB71B7F90430002B06DA41F24403C2F2B8
:103FC000000393F82130BB71F97941F24403C2F246
:103FD000000393F821301A464FEA8202D3184FEAC1
:103FE000430398B2B7F9042041F24403C2F200033C
:103FF00093F82230C3F1640441F24403C2F2000397
:1040000093F82230B7F90450B7F9046006FB05F5C0
:1040100005FB03F5BB79BE7906FB03F395FBF3F3D0
:10402000E31803FB02F246F26763C6F2666383FBA2
:1040300002C34FEAA3044FEAE273E31A9BB2C31828
:104040009BB29AB242F6F463C2F2000323F8112045
:10405000F97941F20813C2F20003B3F8D00041F23B
:104060000813C2F20003B3F8D2301A4641F2081323
:10407000C2F20003B3F8D030D21AFC7942F6F463EE
:10408000C2F2000333F814301BB203FB02F244F611
:10409000D353C1F2620383FB02C34FEAA3144FEA76
:1040A000E273E31A9BB2C3189BB29AB242F6F4636E
:1040B000C2F2000323F81120FB7903F10103FB7125
:1040C000FB790B2B7FF653AF41F24403C2F200039E
:1040D0001B78184612F01AFD0AF0ACFB07F10C072A
:1040E000BD46F0BD80B588B000AF02460B46FA7100
:1040F000BB714FF00003FB764FF000033B614CF6C1
:10410000D543C0F601031A7841F20813C2F2000346
:104110001A7041F20813C2F200034FF45F725A8022
:1041200041F20813C2F200034FF0BE021A7141F2CD
:104130000813C2F200034FF0EF0283F8792341F233
:104140000813C2F200034FF0000283F87A23BB7910
:10415000002B1FD041F20813C2F2000393F878330A
:104160004FF0C40202FB03F303F5947241F208130B
:10417000C2F20003D31803F1040241F24403C2F275
:10418000000311461A464FF0C403084611461A466A
:1041900017F0F8FC41F20813C2F200037B6108E05B
:1041A0007B691A78FB7E5340FB767B6903F1010340
:1041B0007B617A69324B9A42F2D341F20813C2F220
:1041C0000003FA7E83F87A2308F07EFD4FF0F300B7
:1041D00008F082FE4FF058004FF0020108F0A4FDF5
:1041E0000346082B2DD14FF00003FB6122E0FB6951
:1041F00003F1006303F56023F96941F20812C2F28A
:1042000000028A1812681846114608F019FE034683
:10421000FB73FB7B082B09D008F074FD3B6903F1AD
:1042200001033B613B69022B0ADCCDE7FB6903F12B
:104230000403FB61FA6940F27B339A42D7D900E06C
:1042400000BF08F05FFD3B69032B04D0FFF7C4FDFE
:104250000346002B03D14FF00A0004F0D7FCFFF710
:1042600003FEFB79002B07D04FF00F004FF0140135
:104270004FF0010211F010FA07F12007BD4680BD92
:104280008414002080B582B000AF0346FB71FFF7B5
:10429000A3FD0346002B02D0FB79002B07D000F0D2
:1042A0000BF84FF000004FF00001FFF71BFF07F184
:1042B0000807BD4680BD00BF80B584B000AF4CF696
:1042C000E442C0F6010207F104031068516803C319
:1042D00041F20810C2F200004FF000014FF45F728B
:1042E00017F0F2FC41F24400C2F200004FF000016E
:1042F0004FF0C40217F0E8FC4CF6D543C0F60103BA
:104300001A7841F20813C2F200031A7041F208133E
:10431000C2F200034FF003025A7100F073FC4FF039
:10432000010000F041FC4FF4807000F03DFC41F2D0
:104330000813C2F200034FF0000283F8782341F221
:104340000813C2F200034FF41672A3F8F02041F2F2
:104350000813C2F200034FF0FA02A3F8F22041F270
:104360000813C2F200034FF01402A3F8EE2041F24A
:104370000813C2F200034FF00002A3F8FA2041F242
:104380000813C2F200034FF00002A3F8FC2041F230
:104390000813C2F200034FF00002A3F8FE2041F21E
:1043A0000813C2F200034FF0000283F8E22041F24A
:1043B0000813C2F200034FF0000283F8E32041F239
:1043C0000813C2F200034FF0010283F8E42041F227
:1043D0000813C2F200034FF00002A3F8E62041F2F6
:1043E0000813C2F200034FF00002A3F8E82041F2E4
:1043F0000813C2F200034FF00002A3F8EA2041F2D2
:104400000813C2F200034FF0000283F8ED2041F2DE
:104410000813C2F200034FF0010283F8EC2041F2CE
:104420000813C2F200034FF0200283F8F82041F293
:104430000813C2F2000341F20342C0F21402C3F8AF
:10444000F42041F20813C2F200034FF06E0283F829
:10445000062141F20813C2F200034FF02B0283F849
:10446000072141F20813C2F200034FF0210283F842
:10447000082141F20813C2F200034FF0000283F852
:10448000092141F20813C2F200034FF0000283F841
:10449000122141F20813C2F200034FF0000283F828
:1044A000292141F20813C2F2000340F2DC52A3F8C2
:1044B000142141F20813C2F2000340F24C42A3F867
:1044C000162141F20813C2F2000340F26C72A3F805
:1044D000182141F20813C2F200034FF0000283F8E2
:1044E0001A2141F20813C2F2000340F24C42A3F831
:1044F000D02041F20813C2F2000340F26C72A3F81C
:10450000D22041F20813C2F200034FF47A72A3F8EA
:10451000D42041F20813C2F2000340F27E52A3F805
:10452000D62041F20813C2F2000340F2EA52A3F887
:10453000D82041F20813C2F2000340F2B452A3F8AB
:10454000DA2041F20813C2F200034FF03202A3F85E
:10455000DC2041F20813C2F200034FF4C872A3F842
:10456000DE2041F20813C2F200034FF03202A3F83A
:10457000E02041F20813C2F200034FF0020283F878
:104580001D2141F20813C2F200034FF0000283F82C
:104590001E2141F20813C2F200034FF4E132C3F8C6
:1045A000202141F20813C2F200034FF49642C3F8EF
:1045B000242141F20813C2F200034FF0000283F8F5
:1045C000282141F20813C2F2000340F6AC529A814E
:1045D00041F20813C2F200034FF0000283F81C21DD
:1045E00041F24403C2F200034FF000021A7041F29C
:1045F0004403C2F200034FF028025A7041F2440310
:10460000C2F200034FF01E02DA7241F24403C2F21A
:1046100000034FF017025A7541F24403C2F200033F
:104620004FF028029A7041F24403C2F200034FF0A7
:104630001E021A7341F24403C2F200034FF0170244
:104640009A7541F24403C2F200034FF05502DA704A
:1046500041F24403C2F200034FF02D025A7341F2BB
:104660004403C2F200034FF00002DA7541F2440342
:10467000C2F200034FF028021A7141F24403C2F261
:1046800000034FF019029A7341F24403C2F200038F
:104690004FF03C021A7641F24403C2F200034FF09D
:1046A0000B025A7141F24403C2F200034FF00002C0
:1046B000DA7341F24403C2F200034FF000025A766B
:1046C00041F24403C2F200034FF014029A7141F226
:1046D0004403C2F200034FF008021A7441F244038B
:1046E000C2F200034FF02D029A7641F24403C2F267
:1046F00000034FF00E02DA7141F24403C2F20003EC
:104700004FF014025A7441F24403C2F200034FF016
:104710005002DA7641F24403C2F200034FF05A022B
:104720001A7241F24403C2F200034FF00A029A7473
:1047300041F24403C2F200034FF064021A7741F2DF
:104740004403C2F200034FF028025A7241F24403BC
:10475000C2F200034FF000029A7241F24403C2F227
:1047600000034FF000021A7541F24403C2F2000345
:104770004FF000029A7741F24403C2F200034FF077
:104780005A02DA7741F24403C2F200034FF04102C9
:1047900083F8202041F24403C2F200034FF00002EC
:1047A00083F8232041F24403C2F200034FF00002D9
:1047B00083F8242041F24403C2F200034FF00002C8
:1047C00083F8252041F24403C2F200034FF0320285
:1047D00083F8212041F24403C2F200034FF00002AB
:1047E00083F8222041F24403C2F200034FF000029A
:1047F0001A8541F24403C2F200034FF000025A85C9
:1048000041F24403C2F200034FF00002DA8441F2A5
:104810004403C2F200034FF0040283F82C2041F25B
:104820004403C2F200034FF0280283F82D2041F226
:104830004403C2F200034FF0280283F82E2041F215
:104840004403C2F200034FF0150283F82F2041F217
:104850004403C2F2000349F69A12C3F619721A63AE
:1048600041F24403C2F200034BF65202C3F67E72D9
:104870005A6341F24403C2F2000343F23332C3F6F7
:1048800073729A6341F24403C2F200034FF00102D3
:1048900083F83C204CF6D840C0F60100FFF76AFAD6
:1048A00041F24403C2F200034FF0000283F8662095
:1048B00041F24403C2F200034FF0000283F8672084
:1048C00041F24403C2F200034FF0280283F868204B
:1048D00041F24403C2F200034FF0010283F8692061
:1048E00041F24403C2F200034FF0000283F86A2051
:1048F00041F24403C2F200034FF00A0283F8AC20F5
:1049000041F24403C2F200034FF0C80283F8AD2025
:1049100041F24403C2F200034FF49662A3F8AE20C2
:1049200041F24403C2F2000340F2D932A3F8B020AE
:104930004FF00003FB603BE041F24402C2F2000290
:10494000FB6803F10D034FEAC303D3184FF47F72E2
:104950009A8041F24402C2F20002FB6803F10D03A7
:104960004FEAC303D3184FF4FA62DA8041F24402EB
:10497000C2F20002FB6803F10D034FEAC303D31830
:1049800040F2DC521A8107F10402FB68D31819784F
:1049900041F24402C2F20002FB6803F10D034FEA48
:1049A000C303D3180A469A72FB6803F10103FB6044
:1049B000FB68072BC0DD41F24403C2F200034FF055
:1049C000010283F8B22041F24403C2F200034FF027
:1049D000010283F8B32041F24403C2F200034FF016
:1049E000010283F8B42041F24403C2F200034FF005
:1049F000C802A3F8B62041F24403C2F200034FF00C
:104A0000140283F8B82041F24403C2F200034FF0CD
:104A10001E0283F8B92041F24403C2F200034FF0B2
:104A2000010283F8BA2041F24403C2F200034FF0BE
:104A30006402A3F8BC2041F24403C2F200034FF425
:104A40009672A3F8BE2041F24403C2F200034FF075
:104A50002802A3F8C0204FF00003FB6010E041F2F1
:104A60000813C2F20003FA6802F101024FEA0212CF
:104A70009B184FF000021A60FB6803F10103FB6012
:104A8000FB680B2BEBDD4FF00003FB601EE0FB68C7
:104A90004FF0C40202FB03F303F5947241F20813D2
:104AA000C2F20003D31803F1040241F24403C2F23C
:104AB000000311461A464FF0C403084611461A4631
:104AC00017F060F8FB6803F10103FB60FB68022B41
:104AD000DDDD07F11007BD4680BD00BF80B483B0A7
:104AE00000AF786040F2CC63C2F200031A687B68C2
:104AF0001340002B0CBF00230123DBB2184607F143
:104B00000C07BD4680BC704780B483B000AF7860AE
:104B100040F2CC63C2F200031A687B681A4340F289
:104B2000CC63C2F200031A6007F10C07BD4680BCDB
:104B3000704700BF80B483B000AF78607B686FEAD5
:104B4000030240F2CC63C2F200031B681A4040F239
:104B5000CC63C2F200031A6007F10C07BD4680BCAB
:104B6000704700BF80B400AF40F2CC63C2F20003D4
:104B70001B681846BD4680BC704700BF80B483B038
:104B800000AF786041F20813C2F200039A687B68B4
:104B90001340002B0CBF00230123DBB2184607F1A2
:104BA0000C07BD4680BC704780B483B000AF78600E
:104BB00041F20813C2F200039A687B681A4341F27B
:104BC0000813C2F200039A6007F10C07BD4680BCCF
:104BD000704700BF80B483B000AF786041F2081323
:104BE000C2F200039A687B686FEA03031A4041F23D
:104BF0000813C2F200039A6007F10C07BD4680BC9F
:104C0000704700BF80B400AF41F20813C2F2000346
:104C10004FF000029A60BD4680BC704780B400AF80
:104C200041F20813C2F200039B681846BD4680BCDF
:104C3000704700BF80B500AF4FF480400EF060FEBB
:104C40000346012B0AD14FF480400EF085FE40F25E
:104C5000D063C2F200034FF001021A7080BD00BFA2
:104C600080B588B000AF786040F2F863C2F200030C
:104C70001B78002B02D04FF00103C2E04FF4005329
:104C8000BB834FF00203FB774FF01003BB7707F1B4
:104C90001C034FF40060C4F20200194614F0BAF984
:104CA0004FF48043BB834FF00403BB7707F11C0331
:104CB0004FF40060C4F20200194614F0ABF94FF44F
:104CC0000063C4F202034FF400521A834FF480438E
:104CD0007B614FF000033B764FF008037B764FF08B
:104CE0000103BB7607F1140318460EF06DFD4FF07B
:104CF00028033B744FF00F037B744FF00F03BB741A
:104D00004FF00103FB7407F1100318460EF034FE58
:104D10004FF0140003F060FF07F10F034FF077002E
:104D20004FF0D0014FF00102FBF7A6FFFA7B40F2F3
:104D3000D463C2F20003DA7540F2D463C2F2000316
:104D40004FF003021A8440F2D463C2F20003DB7D09
:104D5000552B4DD107F10F034FF077004FF0D101E4
:104D60004FF00102FBF788FFFB7B03F00F03DAB281
:104D700040F2D463C2F200031A76FB7B4FEA1313AE
:104D8000DAB240F2D463C2F200035A7600F022FA9B
:104D900040F2F863C2F200034FF001021A707B6820
:104DA00041F270721A807B6846F678125A807A68EF
:104DB00045F23103C0F6000353607A6845F25503AB
:104DC000C0F6000393607A6845F2C103C0F60003A1
:104DD000D3607A6845F20513C0F6000313617A6860
:104DE00045F28513C0F6000353614FF0010308E05C
:104DF0004FF40063C4F202034FF400525A834FF0A1
:104E00000003184607F12007BD4680BD80B487B077
:104E100000AF78607A6840F2D463C2F200035B8925
:104E2000D21A40F2D463C2F200031B8903FB02F3DF
:104E30004FEAE3337B6140F2D463C2F200035B8A42
:104E40001BB24FEAC32240F2D463C2F200039B8A32
:104E500019B27B69CB1892FBF3F33B617A693B692A
:104E6000D21840F2D463C2F20003DA6140F2D46394
:104E7000C2F20003DA6913464FEA83039B184FEA34
:104E8000430303F108034FEA2313FB60FB68184652
:104E900007F11C07BD4680BC704700BF80B48BB0D3
:104EA00000AF786040F2D463C2F20003DB69A3F57F
:104EB0007A633B623B6A3A6A02FB03F34FEA2333AD
:104EC000FB6140F2D463C2F20003DB891AB2FB69D2
:104ED00002FB03F3FB61FB694FEAE323FB6140F252
:104EE000D463C2F200035B881BB23A6A02FB03F38D
:104EF000BB61BB694FEAE323BB61FA69BB69D318A5
:104F00007B6140F2D463C2F200031B881BB24FEAFC
:104F100083027B69D21840F2D463C2F200031B8C77
:104F20001BB202FA03F303F102034FEAA3033B614E
:104F300040F2D463C2F200039B881BB23A6A02FBC0
:104F400003F34FEA6333FB6140F2D463C2F2000320
:104F50009B891BB23A6A396A01FB02F24FEA22329C
:104F600002FB03F34FEA2343BB61FA69BB69D31821
:104F700003F102034FEAA3037B6140F2D463C2F260
:104F80000003DB887A6902F5004202FB03F34FEA73
:104F9000D333FB603B697A68D21A40F2D463C2F221
:104FA00000031B8C1BB24CF2503141FA03F303FB9C
:104FB00002F3BB60BB68002B07DBBB684FEA430210
:104FC000FB68B2FBF3F37B6206E0BA68FB68B2FBF6
:104FD000F3F34FEA43037B627B6A4FEA2323FB61CF
:104FE000FB69FA6902FB03F3FB61FB6940F6DE3201
:104FF00002FB03F34FEA2343FB617A6A4EF2433329
:10500000CFF6FF7303FB02F34FEA2343BB61FA6958
:10501000BB69D31803F6CF634FEA23137A6AD31818
:105020007B627B6A184607F12C07BD4680BC70473F
:1050300080B500AF40F2D063C2F200034FF000022F
:105040001A704FF077004FF0F4014FF02E02FBF78B
:10505000F9FD80BD80B582B000AF40F2D063C2F2EE
:1050600000031B7883F00103DBB2002B0CD040F26D
:10507000D263C2F200031B8803F101039AB240F22B
:10508000D263C2F200031A8007F104034FF07700E5
:105090004FF0F6014FF00202FBF7EEFD3B794FEACD
:1050A00003239AB27B7913439BB29AB240F2FA631C
:1050B000C2F200031A8007F10807BD4680BD00BF99
:1050C00080B582B000AF40F2D463C2F200031B8C03
:1050D000DBB24FEA8313DBB203F13403FB7140F21E
:1050E000D063C2F200034FF000021A70FB794FF058
:1050F00077004FF0F4011A46FBF7A4FD07F108070B
:10510000BD4680BD80B582B000AF40F2D063C2F230
:1051100000031B7883F00103DBB2002B0CD040F2BC
:10512000D263C2F200031B8803F101039AB240F27A
:10513000D263C2F200031A8007F104034FF0770034
:105140004FF0F6014FF00302FBF796FD3B794FEA73
:1051500003427B794FEA03231A43BB791A4340F297
:10516000D463C2F200031B8C1BB2C3F1080322FA02
:1051700003F240F2FC63C2F200031A6007F1080771
:10518000BD4680BD80B584B000AF7860396040F224
:10519000FA63C2F200031B881846FFF737FEF86077
:1051A00040F2FC63C2F200031B681846FFF776FE6C
:1051B000B8607B68002B02D07B68BA681A603B68D5
:1051C000002B02D03B68FA681A6007F11007BD4651
:1051D00080BD00BF80B586B000AF3B464FF0770082
:1051E0004FF0AA014FF01602FBF746FD3B784FEA5D
:1051F00003239AB27B7813439AB240F2D463C2F28B
:1052000000031A80BB784FEA03239AB2FB7813435A
:105210009AB240F2D463C2F200035A803B794FEA5B
:1052200003239AB27B7913439AB240F2D463C2F259
:1052300000039A80BB794FEA03239AB2FB791343A8
:105240009BB29AB240F2D463C2F20003DA803B7A96
:105250004FEA03239AB27B7A13439BB29AB240F28D
:10526000D463C2F200031A81BB7A4FEA03239AB2D5
:10527000FB7A13439BB29AB240F2D463C2F20003AA
:105280005A813B7B4FEA03239AB27B7B13439AB24A
:1052900040F2D463C2F200039A81BB7B4FEA03233E
:1052A0009AB2FB7B13439AB240F2D463C2F200037A
:1052B000DA813B7C4FEA03239AB27B7C13439AB298
:1052C00040F2D463C2F200031A82BB7C4FEA03238C
:1052D0009AB2FB7C13439AB240F2D463C2F2000349
:1052E0005A823B7D4FEA03239AB27B7D13439AB2E5
:1052F00040F2D463C2F200039A8207F11807BD4658
:1053000080BD00BF80B483B000AF786041F244023A
:10531000C2F200027B6803F10D034FEAC303D31806
:105320001B891BB2112B15DC7B68072B12DC41F2A9
:105330004402C2F200027B6803F10D034FEAC3038B
:10534000D3181B891AB242F68C73C2F2000333F8E9
:1053500012300AE041F24402C2F200027B6803F11B
:105360000D034FEAC303D3181B891BB2184607F17C
:105370000C07BD4680BC704780B483B000AF786036
:10538000396041F24402C2F200027B6803F10D036E
:105390004FEAC303D3189B7A5AB23B681340002BE1
:1053A00002D04FF0FF3301E04FF00103184607F140
:1053B0000C07BD4680BC704790B583B000AF41F28A
:1053C0000813C2F200035B794DF25C12C0F60102D1
:1053D0004FEAC303D3185B78002B0CBF00230123D3
:1053E000DAB241F2B443C2F200039A744FF02000E3
:1053F000FFF7C4FB0346002B06D041F2B443C2F2D0
:1054000000034FF001029A7441F20813C2F2000344
:105410005B79162B3FD14FF000037B6037E041F200
:105420000813C2F200037A6802F101024FEA021285
:105430009B18D3ED007AF5EE407AF1EE10FA7AD0AF
:1054400040F20473C2F200037A684FEA02129A181B
:1054500041F20813C2F20003796801F101014FEA39
:1054600001115B1814460FCB84E80F0040F2007363
:10547000C2F200031B7803F10103DAB240F20073B9
:10548000C2F200031A707B6803F101037B607B6842
:105490000B2BC4DD50E041F20813C2F200035B792C
:1054A0001A464DF25C13C0F6010313F8322040F2A5
:1054B0000073C2F200031A7041F20813C2F2000333
:1054C0005B794DF25C12C0F601024FEAC303D318B8
:1054D0005B68002B30D04FF000037B6021E041F28D
:1054E0000813C2F200035B794DF25C12C0F60102B0
:1054F0004FEAC303D3185A687B684FEA0313D218E4
:1055000040F20473C2F2000379684FEA01115B189C
:105510001C4613460FCB84E80F007B6803F10103A0
:105520007B6040F20073C2F200031B781A467B686E
:105530009A42D4DC00E000BF4FF48040FFF71EFB2E
:105540000346002B6BD040F20073C2F200031B78BD
:10555000012B64D94FF000037B6057E040F20473E5
:10556000C2F200037A684FEA02129B1803F10803A3
:1055700093ED007AF6EE007A67EE277A40F2047334
:10558000C2F200037A684FEA02129B1803F1080383
:10559000C3ED007A40F20473C2F200037A684FEA66
:1055A00002129B1803F1040393ED007AF6EE007AE1
:1055B00067EE277A40F20473C2F200037A684FEA7A
:1055C00002129B1803F10403C3ED007A40F2047346
:1055D000C2F200037A684FEA02129B1803F10C032F
:1055E00093ED007AF6EE007A67EE277A40F20473C4
:1055F000C2F200037A684FEA02129B1803F10C030F
:10560000C3ED007A7B6803F101037B6040F2007315
:10561000C2F200031B781A467B689A429EDC00F0B7
:1056200005F807F10C07BD4690BD00BF80B582B0FC
:1056300000AF4FF000037B6020E04FF48040FFF7A5
:105640009DFA0346002B07D041F20813C2F2000373
:10565000B3F8DA309AB206E041F20813C2F200035E
:10566000B3F8D4309AB241F29C43C2F20003796895
:1056700023F811207B6803F101037B607B680B2B0F
:10568000DBDD07F10807BD4680BD00BF90B484B0E4
:1056900000AF78607B6803F101037B604FF000038B
:1056A000FB6010E041F20813C2F20003FA6802F155
:1056B00001024FEA02129B184FF000021A60FB68C9
:1056C00003F10103FB60FB680B2BEBDD4DF25C1279
:1056D000C0F601027B684FEAC303D3185B68002B56
:1056E0002ED04FF00003FB601FE04DF25C12C0F6BD
:1056F00001027B684FEAC303D3185A68FB684FEA7C
:105700000313D21841F20813C2F20003F96801F141
:1057100001014FEA01115B181C4613460FCB84E8C8
:105720000F00FB6803F10103FB604DF25C13C0F650
:1057300001037A6813F832301A46FB689A42D4DCC7
:1057400007F11007BD4690BC704700BF80B500AFA1
:1057500041F2B443C2F200039B7C83F00103DBB24D
:10576000002B40F00C8141F20813C2F200035B7978
:1057700003F1FF33142B00F2E48001A252F823F06E
:10578000035800084359000843590008D55700083A
:105790008D58000843590008435900085F58000815
:1057A0004359000843590008435900084359000869
:1057B00043590008E95800084359000843590008B4
:1057C000435900084359000843590008BB580008D2
:1057D000E958000840F20C03C2F200031B899BB297
:1057E0004FF00000194602F071FB40F20C03C2F2C8
:1057F00000035B899BB24FF00100194602F066FB83
:10580000C0E041F24403C2F2000393F8B330002B2E
:105810000BD040F20C03C2F200035B899BB24FF045
:105820000000194602F052FBACE042F6DC63C2F223
:1058300000035B78002B0BD040F20C03C2F2000394
:105840005B899BB24FF00000194602F03FFB99E0E4
:105850004FF000004FF0000102F038FB92E040F200
:105860000C03C2F20003DB889BB24FF00000194624
:1058700002F02CFB40F20C03C2F200031B899BB226
:105880004FF00100194602F021FB7BE040F20C03CF
:10589000C2F200031B889BB24FF00000194602F0D1
:1058A00015FB40F20C03C2F200035B889BB24FF081
:1058B0000100194602F00AFB64E040F20C03C2F258
:1058C00000031B899BB24FF00000194602F0FEFA5C
:1058D00040F20C03C2F200035B899BB24FF001005F
:1058E000194602F0F3FA4DE040F20C03C2F2000355
:1058F000DB889BB24FF00000194602F0E7FA40F255
:105900000C03C2F200031B899BB24FF00100194641
:1059100002F0DCFA40F20C03C2F200035B899BB296
:105920004FF00200194602F0D1FA40F20C03C2F225
:1059300000039B899BB24FF00300194602F0C6FAA0
:1059400020E04FF02000FFF719F90346002B18D094
:1059500040F20C03C2F200031B889BB24FF0000020
:10596000194602F0B3FA40F20C03C2F200035B885E
:105970009BB24FF00100194602F0A8FA01E000BF07
:1059800000E000BF80BD00BF80B582B000AF4FF027
:105990000003FB7110E0FA7941F28443C2F2000384
:1059A00033F812309BB2FA791046194602F06EFABB
:1059B000FB7903F10103FB7140F20073C2F20003B3
:1059C0001B78FA799A42E6D307F10807BD4680BDF5
:1059D00080B584B000AF0346FB804FF00003FB733B
:1059E0000BE0FA7B41F28443C2F20003F98823F80A
:1059F0001210FB7B03F10103FB7340F20073C2F250
:105A000000031B78FA7B9A42EBD3FFF7BDFF07F147
:105A10001007BD4680BD00BF90B585B000AF4FF008
:105A20000003BB804FF00003FB8042F6DC63C2F250
:105A300000035B78002B0CD141F20813C2F2000383
:105A4000B3F8D4309AB240F20C03C2F20003DA8108
:105A50001EE042F62473C2F20003DB8819B241F261
:105A60000813C2F20003B3F8D0301A4641F208130B
:105A7000C2F20003B3F8D230084611461A4603F0CA
:105A80002DF903469AB240F20C03C2F20003DA8108
:105A900040F20C03C2F20003DA8941F28443C2F2FD
:105AA00000031A8041F20813C2F2000393F81B317D
:105AB000002B00F099804FF00200FFF723FC034613
:105AC0007B81B7F90A1041F24403C2F20003B3F834
:105AD0007C301AB241F24403C2F20003B3F87E30C4
